{
  "contractName": "Demonstrate",
  "abi": [
    {
      "constant": true,
      "inputs": [
        {
          "name": "",
          "type": "uint256"
        }
      ],
      "name": "demonstrations",
      "outputs": [
        {
          "name": "startTime",
          "type": "uint256"
        },
        {
          "name": "donations",
          "type": "uint256"
        },
        {
          "name": "owner",
          "type": "address"
        }
      ],
      "payable": false,
      "stateMutability": "view",
      "type": "function"
    },
    {
      "anonymous": false,
      "inputs": [
        {
          "indexed": false,
          "name": "index",
          "type": "uint256"
        }
      ],
      "name": "NewDemonstration",
      "type": "event"
    },
    {
      "anonymous": false,
      "inputs": [
        {
          "indexed": false,
          "name": "index",
          "type": "uint256"
        },
        {
          "indexed": false,
          "name": "amount",
          "type": "uint256"
        }
      ],
      "name": "DonationReceived",
      "type": "event"
    },
    {
      "constant": false,
      "inputs": [
        {
          "name": "startTime",
          "type": "uint256"
        },
        {
          "name": "location1",
          "type": "bytes32"
        },
        {
          "name": "location2",
          "type": "bytes32"
        },
        {
          "name": "location3",
          "type": "bytes32"
        }
      ],
      "name": "add",
      "outputs": [
        {
          "name": "",
          "type": "uint256"
        }
      ],
      "payable": true,
      "stateMutability": "payable",
      "type": "function"
    },
    {
      "constant": false,
      "inputs": [
        {
          "name": "_index",
          "type": "uint256"
        }
      ],
      "name": "donate",
      "outputs": [],
      "payable": true,
      "stateMutability": "payable",
      "type": "function"
    },
    {
      "constant": false,
      "inputs": [
        {
          "name": "_index",
          "type": "uint256"
        }
      ],
      "name": "payout",
      "outputs": [],
      "payable": true,
      "stateMutability": "payable",
      "type": "function"
    }
  ],
  "bytecode": "0x608060405234801561001057600080fd5b5061077e806100206000396000f3fe60806040526004361061003f5760003560e01c80639d099e6e14610044578063de47ff68146100cd578063e11523431461012d578063f14faf6f1461015b575b600080fd5b34801561005057600080fd5b5061007d6004803603602081101561006757600080fd5b8101908080359060200190929190505050610189565b604051808481526020018381526020018273ffffffffffffffffffffffffffffffffffffffff1673ffffffffffffffffffffffffffffffffffffffff168152602001935050505060405180910390f35b610117600480360360808110156100e357600080fd5b81019080803590602001909291908035906020019092919080359060200190929190803590602001909291905050506101e0565b6040518082815260200191505060405180910390f35b6101596004803603602081101561014357600080fd5b81019080803590602001909291905050506103ef565b005b6101876004803603602081101561017157600080fd5b8101908080359060200190929190505050610560565b005b6000818154811061019657fe5b90600052602060002090600402016000915090508060000154908060020154908060030160009054906101000a900473ffffffffffffffffffffffffffffffffffffffff16905083565b600042851161023a576040517f08c379a00000000000000000000000000000000000000000000000000000000081526004018080602001828103825260288152602001806107226028913960400191505060405180910390fd5b6060600360405190808252806020026020018201604052801561026c5781602001602082028038833980820191505090505b509050848160008151811061027d57fe5b602002602001018181525050838160018151811061029757fe5b60200260200101818152505082816002815181106102b157fe5b602002602001018181525050600060405180608001604052808881526020018381526020013481526020013373ffffffffffffffffffffffffffffffffffffffff16815250908060018154018082558091505090600182039060005260206000209060040201600090919290919091506000820151816000015560208201518160010190805190602001906103479291906106af565b506040820151816002015560608201518160030160006101000a81548173ffffffffffffffffffffffffffffffffffffffff021916908373ffffffffffffffffffffffffffffffffffffffff1602179055505050507f58dcb7e0024669b4d6a397c08f88007ee32c057f22b108eb44a8cd805de37f816001600080549050036040518082815260200191505060405180910390a1600160008054905003915050949350505050565b803373ffffffffffffffffffffffffffffffffffffffff166000828154811061041457fe5b906000526020600020906004020160030160009054906101000a900473ffffffffffffffffffffffffffffffffffffffff1673ffffffffffffffffffffffffffffffffffffffff16146104cf576040517f08c379a000000000000000000000000000000000000000000000000000000000815260040180806020018281038252600a8152602001807f4f6e6c79206f776e65720000000000000000000000000000000000000000000081525060200191505060405180910390fd5b60008083815481106104dd57fe5b906000526020600020906004020160020154905060008084815481106104ff57fe5b9060005260206000209060040201600201819055503373ffffffffffffffffffffffffffffffffffffffff166108fc829081150290604051600060405180830381858888f1935050505015801561055a573d6000803e3d6000fd5b50505050565b600073ffffffffffffffffffffffffffffffffffffffff166000828154811061058557fe5b906000526020600020906004020160030160009054906101000a900473ffffffffffffffffffffffffffffffffffffffff1673ffffffffffffffffffffffffffffffffffffffff161415610641576040517f08c379a00000000000000000000000000000000000000000000000000000000081526004018080602001828103825260158152602001807f496e76616c69642064656d6f6e7374726174696f6e000000000000000000000081525060200191505060405180910390fd5b346000828154811061064f57fe5b9060005260206000209060040201600201600082825401925050819055507f7f33cc4ff9ec616b18266ccfe9acb607a1f8b1fb7e411b9a9b9dc03df1fb548a8134604051808381526020018281526020019250505060405180910390a150565b8280548282559060005260206000209081019282156106eb579160200282015b828111156106ea5782518255916020019190600101906106cf565b5b5090506106f891906106fc565b5090565b61071e91905b8082111561071a576000816000905550600101610702565b5090565b9056fe44656d6f6e7374726174696f6e73206e65656420746f20626520696e20746865206675747572652ea265627a7a72305820f7a4715bc9c23acdef2cc28080741a9aae7827eaf69644eb7791e299a355565264736f6c634300050a0032",
  "source": "pragma solidity ^0.5.10;\n\ncontract Demonstrate {\n    \n    struct Demonstration {\n        uint256 startTime;\n        bytes32[] whatThreeWords;\n        uint256 donations;\n        address owner;\n    }\n\n    Demonstration[] public demonstrations;\n    //mapping(address => uint256) public claims;\n\n    function add(uint256 startTime, bytes32 location1, bytes32 location2, bytes32 location3) public payable returns (uint) {\n        require(startTime > now, \"Demonstrations need to be in the future.\");\n\n        bytes32[] memory location = new bytes32[](3);\n        location[0] = location1;\n        location[1] = location2;\n        location[2] = location3;\n\n        demonstrations.push(Demonstration(startTime, location, msg.value, msg.sender));\n        emit NewDemonstration(demonstrations.length - 1);\n\n        return demonstrations.length - 1;\n    }\n\n    function donate(uint256 _index) public payable {\n        require(demonstrations[_index].owner != address(0), \"Invalid demonstration\");\n        demonstrations[_index].donations += msg.value;\n\n        emit DonationReceived(_index, msg.value);\n    }\n\n    function payout(uint256 _index) public payable onlyCampaignOnwner(_index) {\n        uint256 amount = demonstrations[_index].donations;\n        demonstrations[_index].donations = 0;\n\n        //address reciever = demonstrations[_index].owner;\n        msg.sender.transfer(amount);\n        //reciever.transfer(amount);\n    }\n\n    modifier onlyCampaignOnwner(uint256 _index) {\n        require(demonstrations[_index].owner == msg.sender, \"Only owner\");\n        _;\n    }\n\n    event NewDemonstration(uint256 index);\n    event DonationReceived(uint256 index, uint256 amount);\n}",
  "sourcePath": "/home/lucascullen/GitHub/ddemostrate/ddemonstrate.org/contracts/demonstrate.sol",
  "compiler": {
    "name": "solc",
    "version": "0.5.10+commit.5a6ea5b1.Emscripten.clang"
  },
  "schemaVersion": "3.0.12",
  "updatedAt": "2020-02-22T23:10:21.435Z",
  "devdoc": {
    "methods": {}
  },
  "userdoc": {
    "methods": {}
  }
}