{
  "contractName": "Demonstrate",
  "abi": [
    {
      "anonymous": false,
      "inputs": [
        {
          "indexed": false,
          "internalType": "uint256",
          "name": "index",
          "type": "uint256"
        },
        {
          "indexed": false,
          "internalType": "uint256",
          "name": "amount",
          "type": "uint256"
        }
      ],
      "name": "DonationReceived",
      "type": "event"
    },
    {
      "anonymous": false,
      "inputs": [
        {
          "indexed": false,
          "internalType": "uint256",
          "name": "index",
          "type": "uint256"
        }
      ],
      "name": "NewDemonstration",
      "type": "event"
    },
    {
      "inputs": [
        {
          "internalType": "uint256",
          "name": "",
          "type": "uint256"
        }
      ],
      "name": "demonstrations",
      "outputs": [
        {
          "internalType": "uint256",
          "name": "startTime",
          "type": "uint256"
        },
        {
          "internalType": "uint256",
          "name": "donations",
          "type": "uint256"
        },
        {
          "internalType": "address",
          "name": "owner",
          "type": "address"
        }
      ],
      "stateMutability": "view",
      "type": "function"
    },
    {
      "inputs": [
        {
          "internalType": "uint256",
          "name": "startTime",
          "type": "uint256"
        },
        {
          "internalType": "bytes32",
          "name": "location1",
          "type": "bytes32"
        },
        {
          "internalType": "bytes32",
          "name": "location2",
          "type": "bytes32"
        },
        {
          "internalType": "bytes32",
          "name": "location3",
          "type": "bytes32"
        }
      ],
      "name": "add",
      "outputs": [
        {
          "internalType": "uint256",
          "name": "",
          "type": "uint256"
        }
      ],
      "stateMutability": "payable",
      "type": "function"
    },
    {
      "inputs": [
        {
          "internalType": "uint256",
          "name": "_index",
          "type": "uint256"
        }
      ],
      "name": "donate",
      "outputs": [],
      "stateMutability": "payable",
      "type": "function"
    },
    {
      "inputs": [
        {
          "internalType": "uint256",
          "name": "_index",
          "type": "uint256"
        }
      ],
      "name": "payout",
      "outputs": [],
      "stateMutability": "payable",
      "type": "function"
    }
  ],
  "bytecode": "0x608060405234801561001057600080fd5b5061077c806100206000396000f3fe60806040526004361061003f5760003560e01c80639d099e6e14610044578063de47ff68146100cd578063e11523431461012d578063f14faf6f1461015b575b600080fd5b34801561005057600080fd5b5061007d6004803603602081101561006757600080fd5b8101908080359060200190929190505050610189565b604051808481526020018381526020018273ffffffffffffffffffffffffffffffffffffffff1673ffffffffffffffffffffffffffffffffffffffff168152602001935050505060405180910390f35b610117600480360360808110156100e357600080fd5b81019080803590602001909291908035906020019092919080359060200190929190803590602001909291905050506101e0565b6040518082815260200191505060405180910390f35b6101596004803603602081101561014357600080fd5b81019080803590602001909291905050506103ec565b005b6101876004803603602081101561017157600080fd5b810190808035906020019092919050505061055d565b005b6000818154811061019657fe5b90600052602060002090600402016000915090508060000154908060020154908060030160009054906101000a900473ffffffffffffffffffffffffffffffffffffffff16905083565b600042851161023a576040517f08c379a000000000000000000000000000000000000000000000000000000000815260040180806020018281038252602881526020018061071f6028913960400191505060405180910390fd5b6060600360405190808252806020026020018201604052801561026c5781602001602082028038833980820191505090505b509050848160008151811061027d57fe5b602002602001018181525050838160018151811061029757fe5b60200260200101818152505082816002815181106102b157fe5b602002602001018181525050600060405180608001604052808881526020018381526020013481526020013373ffffffffffffffffffffffffffffffffffffffff1681525090806001815401808255809150506001900390600052602060002090600402016000909190919091506000820151816000015560208201518160010190805190602001906103459291906106ac565b506040820151816002015560608201518160030160006101000a81548173ffffffffffffffffffffffffffffffffffffffff021916908373ffffffffffffffffffffffffffffffffffffffff16021790555050507f58dcb7e0024669b4d6a397c08f88007ee32c057f22b108eb44a8cd805de37f816001600080549050036040518082815260200191505060405180910390a1600160008054905003915050949350505050565b803373ffffffffffffffffffffffffffffffffffffffff166000828154811061041157fe5b906000526020600020906004020160030160009054906101000a900473ffffffffffffffffffffffffffffffffffffffff1673ffffffffffffffffffffffffffffffffffffffff16146104cc576040517f08c379a000000000000000000000000000000000000000000000000000000000815260040180806020018281038252600a8152602001807f4f6e6c79206f776e65720000000000000000000000000000000000000000000081525060200191505060405180910390fd5b60008083815481106104da57fe5b906000526020600020906004020160020154905060008084815481106104fc57fe5b9060005260206000209060040201600201819055503373ffffffffffffffffffffffffffffffffffffffff166108fc829081150290604051600060405180830381858888f19350505050158015610557573d6000803e3d6000fd5b50505050565b600073ffffffffffffffffffffffffffffffffffffffff166000828154811061058257fe5b906000526020600020906004020160030160009054906101000a900473ffffffffffffffffffffffffffffffffffffffff1673ffffffffffffffffffffffffffffffffffffffff16141561063e576040517f08c379a00000000000000000000000000000000000000000000000000000000081526004018080602001828103825260158152602001807f496e76616c69642064656d6f6e7374726174696f6e000000000000000000000081525060200191505060405180910390fd5b346000828154811061064c57fe5b9060005260206000209060040201600201600082825401925050819055507f7f33cc4ff9ec616b18266ccfe9acb607a1f8b1fb7e411b9a9b9dc03df1fb548a8134604051808381526020018281526020019250505060405180910390a150565b8280548282559060005260206000209081019282156106e8579160200282015b828111156106e75782518255916020019190600101906106cc565b5b5090506106f591906106f9565b5090565b61071b91905b808211156107175760008160009055506001016106ff565b5090565b9056fe44656d6f6e7374726174696f6e73206e65656420746f20626520696e20746865206675747572652ea26469706673582212204ed372d61ebd29ce5d7f536836d49e36a69506be2aa0156072192fcc6e8b4d8c64736f6c63430006000033",
  "source": "pragma solidity ^0.6.0;\n\ncontract Demonstrate {\n    \n    struct Demonstration {\n        uint256 startTime;\n        bytes32[] whatThreeWords;\n        uint256 donations;\n        address owner;\n    }\n\n    Demonstration[] public demonstrations;\n    //mapping(address => uint256) public claims;\n\n    function add(uint256 startTime, bytes32 location1, bytes32 location2, bytes32 location3) public payable returns (uint) {\n        require(startTime > now, \"Demonstrations need to be in the future.\");\n\n        bytes32[] memory location = new bytes32[](3);\n        location[0] = location1;\n        location[1] = location2;\n        location[2] = location3;\n\n        demonstrations.push(Demonstration(startTime, location, msg.value, msg.sender));\n        emit NewDemonstration(demonstrations.length - 1);\n\n        return demonstrations.length - 1;\n    }\n\n    function donate(uint256 _index) public payable {\n        require(demonstrations[_index].owner != address(0), \"Invalid demonstration\");\n        demonstrations[_index].donations += msg.value;\n\n        emit DonationReceived(_index, msg.value);\n    }\n\n    function payout(uint256 _index) public payable onlyCampaignOnwner(_index) {\n        uint256 amount = demonstrations[_index].donations;\n        demonstrations[_index].donations = 0;\n        msg.sender.transfer(amount);\n    }\n\n    modifier onlyCampaignOnwner(uint256 _index) {\n        require(demonstrations[_index].owner == msg.sender, \"Only owner\");\n        _;\n    }\n\n    event NewDemonstration(uint256 index);\n    event DonationReceived(uint256 index, uint256 amount);\n}",
  "sourcePath": "/Users/lucascullen/GitHub/ddemonstrate/ddemonstrate.org/contracts/demonstrate.sol",
  "compiler": {
    "name": "solc",
    "version": "0.6.0+commit.26b70077.Emscripten.clang"
  },
  "schemaVersion": "3.0.23",
  "updatedAt": "2020-02-23T04:21:07.874Z",
  "devdoc": {
    "methods": {}
  },
  "userdoc": {
    "methods": {}
  }
}