{
  "contractName": "Demonstrate",
  "abi": [
    {
      "constant": true,
      "inputs": [
        {
          "name": "",
          "type": "uint256"
        }
      ],
      "name": "groups",
      "outputs": [
        {
          "name": "title",
          "type": "string"
        }
      ],
      "payable": false,
      "stateMutability": "view",
      "type": "function"
    },
    {
      "constant": true,
      "inputs": [
        {
          "name": "",
          "type": "uint256"
        }
      ],
      "name": "demonstrations",
      "outputs": [
        {
          "name": "title",
          "type": "string"
        },
        {
          "name": "startTime",
          "type": "uint256"
        },
        {
          "name": "endTime",
          "type": "uint256"
        },
        {
          "name": "whatThreeWords1",
          "type": "string"
        },
        {
          "name": "whatThreeWords2",
          "type": "string"
        },
        {
          "name": "whatThreeWords3",
          "type": "string"
        },
        {
          "name": "donations",
          "type": "uint256"
        },
        {
          "name": "owner",
          "type": "address"
        }
      ],
      "payable": false,
      "stateMutability": "view",
      "type": "function"
    },
    {
      "anonymous": false,
      "inputs": [
        {
          "indexed": false,
          "name": "index",
          "type": "uint256"
        }
      ],
      "name": "NewDemonstration",
      "type": "event"
    },
    {
      "anonymous": false,
      "inputs": [
        {
          "indexed": false,
          "name": "index",
          "type": "uint256"
        },
        {
          "indexed": false,
          "name": "amount",
          "type": "uint256"
        }
      ],
      "name": "DonationReceived",
      "type": "event"
    },
    {
      "constant": true,
      "inputs": [],
      "name": "count",
      "outputs": [
        {
          "name": "",
          "type": "uint256"
        }
      ],
      "payable": false,
      "stateMutability": "view",
      "type": "function"
    },
    {
      "constant": false,
      "inputs": [
        {
          "name": "startTime",
          "type": "uint256"
        },
        {
          "name": "endTime",
          "type": "uint256"
        },
        {
          "name": "title",
          "type": "string"
        },
        {
          "name": "location1",
          "type": "string"
        },
        {
          "name": "location2",
          "type": "string"
        },
        {
          "name": "location3",
          "type": "string"
        }
      ],
      "name": "add",
      "outputs": [
        {
          "name": "",
          "type": "uint256"
        }
      ],
      "payable": true,
      "stateMutability": "payable",
      "type": "function"
    },
    {
      "constant": false,
      "inputs": [
        {
          "name": "_index",
          "type": "uint256"
        }
      ],
      "name": "remove",
      "outputs": [],
      "payable": false,
      "stateMutability": "nonpayable",
      "type": "function"
    },
    {
      "constant": false,
      "inputs": [
        {
          "name": "_index",
          "type": "uint256"
        }
      ],
      "name": "donate",
      "outputs": [],
      "payable": true,
      "stateMutability": "payable",
      "type": "function"
    },
    {
      "constant": false,
      "inputs": [
        {
          "name": "_index",
          "type": "uint256"
        }
      ],
      "name": "payout",
      "outputs": [],
      "payable": true,
      "stateMutability": "payable",
      "type": "function"
    }
  ],
  "bytecode": "0x608060405234801561001057600080fd5b5061127e806100206000396000f3fe6080604052600436106100705760003560e01c806396324bd41161004e57806396324bd4146103835780639d099e6e14610437578063e115234314610677578063f14faf6f146106a557610070565b806306661abd146100755780634cc82215146100a057806357caa764146100db575b600080fd5b34801561008157600080fd5b5061008a6106d3565b6040518082815260200191505060405180910390f35b3480156100ac57600080fd5b506100d9600480360360208110156100c357600080fd5b81019080803590602001909291905050506106df565b005b61036d600480360360c08110156100f157600080fd5b8101908080359060200190929190803590602001909291908035906020019064010000000081111561012257600080fd5b82018360208201111561013457600080fd5b8035906020019184600183028401116401000000008311171561015657600080fd5b91908080601f016020809104026020016040519081016040528093929190818152602001838380828437600081840152601f19601f820116905080830192505050505050509192919290803590602001906401000000008111156101b957600080fd5b8201836020820111156101cb57600080fd5b803590602001918460018302840111640100000000831117156101ed57600080fd5b91908080601f016020809104026020016040519081016040528093929190818152602001838380828437600081840152601f19601f8201169050808301925050505050505091929192908035906020019064010000000081111561025057600080fd5b82018360208201111561026257600080fd5b8035906020019184600183028401116401000000008311171561028457600080fd5b91908080601f016020809104026020016040519081016040528093929190818152602001838380828437600081840152601f19601f820116905080830192505050505050509192919290803590602001906401000000008111156102e757600080fd5b8201836020820111156102f957600080fd5b8035906020019184600183028401116401000000008311171561031b57600080fd5b91908080601f016020809104026020016040519081016040528093929190818152602001838380828437600081840152601f19601f820116905080830192505050505050509192919290505050610860565b6040518082815260200191505060405180910390f35b34801561038f57600080fd5b506103bc600480360360208110156103a657600080fd5b8101908080359060200190929190505050610abf565b6040518080602001828103825283818151815260200191508051906020019080838360005b838110156103fc5780820151818401526020810190506103e1565b50505050905090810190601f1680156104295780820380516001836020036101000a031916815260200191505b509250505060405180910390f35b34801561044357600080fd5b506104706004803603602081101561045a57600080fd5b8101908080359060200190929190505050610b7e565b60405180806020018981526020018881526020018060200180602001806020018781526020018673ffffffffffffffffffffffffffffffffffffffff1673ffffffffffffffffffffffffffffffffffffffff16815260200185810385528d818151815260200191508051906020019080838360005b838110156105005780820151818401526020810190506104e5565b50505050905090810190601f16801561052d5780820380516001836020036101000a031916815260200191505b5085810384528a818151815260200191508051906020019080838360005b8381101561056657808201518184015260208101905061054b565b50505050905090810190601f1680156105935780820380516001836020036101000a031916815260200191505b50858103835289818151815260200191508051906020019080838360005b838110156105cc5780820151818401526020810190506105b1565b50505050905090810190601f1680156105f95780820380516001836020036101000a031916815260200191505b50858103825288818151815260200191508051906020019080838360005b83811015610632578082015181840152602081019050610617565b50505050905090810190601f16801561065f5780820380516001836020036101000a031916815260200191505b509c5050505050505050505050505060405180910390f35b6106a36004803603602081101561068d57600080fd5b8101908080359060200190929190505050610e53565b005b6106d1600480360360208110156106bb57600080fd5b8101908080359060200190929190505050610fc4565b005b60008080549050905090565b803373ffffffffffffffffffffffffffffffffffffffff166000828154811061070457fe5b906000526020600020906008020160070160009054906101000a900473ffffffffffffffffffffffffffffffffffffffff1673ffffffffffffffffffffffffffffffffffffffff16146107bf576040517f08c379a000000000000000000000000000000000000000000000000000000000815260040180806020018281038252600a8152602001807f4f6e6c79206f776e65720000000000000000000000000000000000000000000081525060200191505060405180910390fd5b600082815481106107cc57fe5b9060005260206000209060080201600080820160006107eb9190611113565b6001820160009055600282016000905560038201600061080b9190611113565b60048201600061081b9190611113565b60058201600061082b9190611113565b60068201600090556007820160006101000a81549073ffffffffffffffffffffffffffffffffffffffff021916905550505050565b60004287116108ba576040517f08c379a00000000000000000000000000000000000000000000000000000000081526004018080602001828103825260288152602001806112016028913960400191505060405180910390fd5b868611610912576040517f08c379a00000000000000000000000000000000000000000000000000000000081526004018080602001828103825260218152602001806112296021913960400191505060405180910390fd5b60006040518061010001604052808781526020018981526020018881526020018681526020018581526020018481526020013481526020013373ffffffffffffffffffffffffffffffffffffffff168152509080600181540180825580915050906001820390600052602060002090600802016000909192909190915060008201518160000190805190602001906109ab92919061115b565b50602082015181600101556040820151816002015560608201518160030190805190602001906109dc92919061115b565b5060808201518160040190805190602001906109f992919061115b565b5060a0820151816005019080519060200190610a1692919061115b565b5060c0820151816006015560e08201518160070160006101000a81548173ffffffffffffffffffffffffffffffffffffffff021916908373ffffffffffffffffffffffffffffffffffffffff1602179055505050507f58dcb7e0024669b4d6a397c08f88007ee32c057f22b108eb44a8cd805de37f816001600080549050036040518082815260200191505060405180910390a160016000805490500390509695505050505050565b60018181548110610acc57fe5b90600052602060002001600091509050806000018054600181600116156101000203166002900480601f016020809104026020016040519081016040528092919081815260200182805460018160011615610100020316600290048015610b745780601f10610b4957610100808354040283529160200191610b74565b820191906000526020600020905b815481529060010190602001808311610b5757829003601f168201915b5050505050905081565b60008181548110610b8b57fe5b9060005260206000209060080201600091509050806000018054600181600116156101000203166002900480601f016020809104026020016040519081016040528092919081815260200182805460018160011615610100020316600290048015610c375780601f10610c0c57610100808354040283529160200191610c37565b820191906000526020600020905b815481529060010190602001808311610c1a57829003601f168201915b505050505090806001015490806002015490806003018054600181600116156101000203166002900480601f016020809104026020016040519081016040528092919081815260200182805460018160011615610100020316600290048015610ce15780601f10610cb657610100808354040283529160200191610ce1565b820191906000526020600020905b815481529060010190602001808311610cc457829003601f168201915b505050505090806004018054600181600116156101000203166002900480601f016020809104026020016040519081016040528092919081815260200182805460018160011615610100020316600290048015610d7f5780601f10610d5457610100808354040283529160200191610d7f565b820191906000526020600020905b815481529060010190602001808311610d6257829003601f168201915b505050505090806005018054600181600116156101000203166002900480601f016020809104026020016040519081016040528092919081815260200182805460018160011615610100020316600290048015610e1d5780601f10610df257610100808354040283529160200191610e1d565b820191906000526020600020905b815481529060010190602001808311610e0057829003601f168201915b5050505050908060060154908060070160009054906101000a900473ffffffffffffffffffffffffffffffffffffffff16905088565b803373ffffffffffffffffffffffffffffffffffffffff1660008281548110610e7857fe5b906000526020600020906008020160070160009054906101000a900473ffffffffffffffffffffffffffffffffffffffff1673ffffffffffffffffffffffffffffffffffffffff1614610f33576040517f08c379a000000000000000000000000000000000000000000000000000000000815260040180806020018281038252600a8152602001807f4f6e6c79206f776e65720000000000000000000000000000000000000000000081525060200191505060405180910390fd5b6000808381548110610f4157fe5b90600052602060002090600802016006015490506000808481548110610f6357fe5b9060005260206000209060080201600601819055503373ffffffffffffffffffffffffffffffffffffffff166108fc829081150290604051600060405180830381858888f19350505050158015610fbe573d6000803e3d6000fd5b50505050565b600073ffffffffffffffffffffffffffffffffffffffff1660008281548110610fe957fe5b906000526020600020906008020160070160009054906101000a900473ffffffffffffffffffffffffffffffffffffffff1673ffffffffffffffffffffffffffffffffffffffff1614156110a5576040517f08c379a00000000000000000000000000000000000000000000000000000000081526004018080602001828103825260158152602001807f496e76616c69642064656d6f6e7374726174696f6e000000000000000000000081525060200191505060405180910390fd5b34600082815481106110b357fe5b9060005260206000209060080201600601600082825401925050819055507f7f33cc4ff9ec616b18266ccfe9acb607a1f8b1fb7e411b9a9b9dc03df1fb548a8134604051808381526020018281526020019250505060405180910390a150565b50805460018160011615610100020316600290046000825580601f106111395750611158565b601f01602090049060005260206000209081019061115791906111db565b5b50565b828054600181600116156101000203166002900490600052602060002090601f016020900481019282601f1061119c57805160ff19168380011785556111ca565b828001600101855582156111ca579182015b828111156111c95782518255916020019190600101906111ae565b5b5090506111d791906111db565b5090565b6111fd91905b808211156111f95760008160009055506001016111e1565b5090565b9056fe44656d6f6e7374726174696f6e73206e65656420746f20626520696e20746865206675747572652e456e642074696d65206d7573742062652061667465722073746172742074696d65a265627a7a72305820536888efe54e8e77173cff39fb24c478acbab3d5f2be60386f084da71bdeb71b64736f6c634300050a0032",
  "source": "pragma solidity ^0.5.10;\n\ncontract Demonstrate {\n\n    struct Demonstration {\n        string title;\n        uint256 startTime;\n        uint256 endTime;\n        string whatThreeWords1;\n        string whatThreeWords2;\n        string whatThreeWords3;\n        uint256 donations;\n        address owner;\n    }\n\n    struct Group {\n        string title;\n    }\n\n    Demonstration[] public demonstrations;\n    Group[] public groups;\n    //mapping(address => uint256) public claims;\n\n    function count() public view returns(uint256) {\n        return demonstrations.length;\n    }\n\n    function add(uint256 startTime, uint256 endTime, string memory title, string memory location1, string memory location2, string memory location3) public payable returns (uint) {\n        require(startTime > now, \"Demonstrations need to be in the future.\");\n        require(endTime > startTime, \"End time must be after start time\");\n        // string[] memory location = new string[](3);\n        // location[0] = location1;\n        // location[1] = location2;\n        // location[2] = location3;\n\n        demonstrations.push(Demonstration(title, startTime, endTime, location1, location2, location3, msg.value, msg.sender));\n        emit NewDemonstration(demonstrations.length - 1);\n\n        return demonstrations.length - 1;\n    }\n\n    function remove(uint256 _index) public onlyCampaignOwner(_index) {\n        delete demonstrations[_index];\n    }\n\n    function donate(uint256 _index) public payable {\n        require(demonstrations[_index].owner != address(0), \"Invalid demonstration\");\n        demonstrations[_index].donations += msg.value;\n\n        emit DonationReceived(_index, msg.value);\n    }\n\n    function payout(uint256 _index) public payable onlyCampaignOwner(_index) {\n        uint256 amount = demonstrations[_index].donations;\n        demonstrations[_index].donations = 0;\n        msg.sender.transfer(amount);\n    }\n\n    modifier onlyCampaignOwner(uint256 _index) {\n        require(demonstrations[_index].owner == msg.sender, \"Only owner\");\n        _;\n    }\n\n    event NewDemonstration(uint256 index);\n    event DonationReceived(uint256 index, uint256 amount);\n}",
  "sourcePath": "/home/lucascullen/GitHub/ddemonstrate/ddemonstrate.org/contracts/demonstrate.sol",
  "compiler": {
    "name": "solc",
    "version": "0.5.10+commit.5a6ea5b1.Emscripten.clang"
  },
  "schemaVersion": "3.0.12",
  "updatedAt": "2020-03-07T01:33:44.607Z",
  "devdoc": {
    "methods": {}
  },
  "userdoc": {
    "methods": {}
  }
}